{
  "contractName": "Faucet",
  "abi": [
    {
      "anonymous": false,
      "inputs": [
        {
          "indexed": true,
          "internalType": "address",
          "name": "from",
          "type": "address"
        },
        {
          "indexed": false,
          "internalType": "uint256",
          "name": "amount",
          "type": "uint256"
        }
      ],
      "name": "Deposit",
      "type": "event"
    },
    {
      "anonymous": false,
      "inputs": [
        {
          "indexed": true,
          "internalType": "address",
          "name": "to",
          "type": "address"
        },
        {
          "indexed": false,
          "internalType": "uint256",
          "name": "amount",
          "type": "uint256"
        }
      ],
      "name": "Withdrawal",
      "type": "event"
    },
    {
      "stateMutability": "payable",
      "type": "fallback",
      "payable": true
    },
    {
      "inputs": [],
      "name": "destroy",
      "outputs": [],
      "stateMutability": "nonpayable",
      "type": "function"
    },
    {
      "inputs": [
        {
          "internalType": "uint256",
          "name": "withdraw_amount",
          "type": "uint256"
        }
      ],
      "name": "withdraw",
      "outputs": [],
      "stateMutability": "nonpayable",
      "type": "function"
    }
  ],
  "bytecode": "0x608060405234801561001057600080fd5b50336000806101000a81548173ffffffffffffffffffffffffffffffffffffffff021916908373ffffffffffffffffffffffffffffffffffffffff160217905550610472806100606000396000f3fe60806040526004361061002d5760003560e01c80632e1a7d4d1461007e57806383197ef0146100a75761002e565b5b3373ffffffffffffffffffffffffffffffffffffffff167fe1fffcc4923d04b559f4d29a8bfc6cda04eb5b0d3c460751c2402c5c5cc9109c34604051610074919061028e565b60405180910390a2005b34801561008a57600080fd5b506100a560048036038101906100a091906102da565b6100be565b005b3480156100b357600080fd5b506100bc6101ae565b005b67016345785d8a00008111156100d357600080fd5b80471015610116576040517f08c379a000000000000000000000000000000000000000000000000000000000815260040161010d9061038a565b60405180910390fd5b3373ffffffffffffffffffffffffffffffffffffffff166108fc829081150290604051600060405180830381858888f1935050505015801561015c573d6000803e3d6000fd5b503373ffffffffffffffffffffffffffffffffffffffff167f7fcf532c15f0a6db0bd6d0e038bea71d30d808c7d98cb3bf7268a95bf5081b65826040516101a3919061028e565b60405180910390a250565b60008054906101000a900473ffffffffffffffffffffffffffffffffffffffff1673ffffffffffffffffffffffffffffffffffffffff163373ffffffffffffffffffffffffffffffffffffffff161461023c576040517f08c379a00000000000000000000000000000000000000000000000000000000081526004016102339061041c565b60405180910390fd5b60008054906101000a900473ffffffffffffffffffffffffffffffffffffffff1673ffffffffffffffffffffffffffffffffffffffff16ff5b6000819050919050565b61028881610275565b82525050565b60006020820190506102a3600083018461027f565b92915050565b600080fd5b6102b781610275565b81146102c257600080fd5b50565b6000813590506102d4816102ae565b92915050565b6000602082840312156102f0576102ef6102a9565b5b60006102fe848285016102c5565b91505092915050565b600082825260208201905092915050565b7f496e73756666696369656e742062616c616e636520696e20666175636574206660008201527f6f722077697468647261776c2072657175657374000000000000000000000000602082015250565b6000610374603483610307565b915061037f82610318565b604082019050919050565b600060208201905081810360008301526103a381610367565b9050919050565b7f4f6e6c792074686520636f6e7472616374206f776e65722063616e2063616c6c60008201527f20746869732066756e6374696f6e000000000000000000000000000000000000602082015250565b6000610406602e83610307565b9150610411826103aa565b604082019050919050565b60006020820190508181036000830152610435816103f9565b905091905056fea26469706673582212208f4e17377b6f9fa6fc0990f966adae68544b66b116cfde431a1f105eee7d283464736f6c63430008130033",
  "immutableReferences": {},
  "source": "pragma solidity >=0.7.0 <0.9.0;\n\ncontract owned {\n\n    address owner;\n\n    // Contract constructor: set owner\n    constructor() {\n        owner = msg.sender;\n    }\n    \n    // Access control modifier\n    modifier onlyOwner {\n        require(msg.sender == owner, \n                \"Only the contract owner can call this function\");\n        _;\n    }\n}\n\ncontract mortal is owned{\n    //Contract destructor\n    function destroy() public onlyOwner{\n        selfdestruct(payable(owner));\n    }\n}\n\ncontract Faucet is mortal{\n    event Withdrawal(address indexed to, uint amount);\n    event Deposit(address indexed from, uint amount);\n    // Give out ether to anyone who asks\n    function withdraw(uint withdraw_amount) public{\n        //Limit withdraw amount\n        require(withdraw_amount<=100000000000000000);\n        require(address(this).balance >= withdraw_amount, \n                \"Insufficient balance in faucet for withdrawl request\");\n        //Send the amount to the address that requested it\n        payable(msg.sender).transfer(withdraw_amount);\n        emit Withdrawal(msg.sender, withdraw_amount);\n    }\n    //Accept any incoming amount\n    fallback() external payable{\n        emit Deposit(msg.sender, msg.value);\n    }\n}\n",
  "sourcePath": "/home/skylorun/LearningBasics/truffle/Faucet/contracts/Faucet.sol",
  "compiler": {
    "name": "solc",
    "version": "0.8.19+commit.7dd6d404.Emscripten.clang"
  },
  "schemaVersion": "3.4.12",
  "updatedAt": "2023-02-23T19:08:42.827Z",
  "networkType": "ethereum",
  "devdoc": {
    "kind": "dev",
    "methods": {},
    "version": 1
  },
  "userdoc": {
    "kind": "user",
    "methods": {},
    "version": 1
  }
}