{
  "contractName": "mortal",
  "abi": [
    {
      "inputs": [],
      "name": "destroy",
      "outputs": [],
      "stateMutability": "nonpayable",
      "type": "function"
    }
  ],
  "bytecode": "0x608060405234801561001057600080fd5b50336000806101000a81548173ffffffffffffffffffffffffffffffffffffffff021916908373ffffffffffffffffffffffffffffffffffffffff1602179055506101da806100606000396000f3fe608060405234801561001057600080fd5b506004361061002b5760003560e01c806383197ef014610030575b600080fd5b61003861003a565b005b60008054906101000a900473ffffffffffffffffffffffffffffffffffffffff1673ffffffffffffffffffffffffffffffffffffffff163373ffffffffffffffffffffffffffffffffffffffff16146100c8576040517f08c379a00000000000000000000000000000000000000000000000000000000081526004016100bf90610184565b60405180910390fd5b60008054906101000a900473ffffffffffffffffffffffffffffffffffffffff1673ffffffffffffffffffffffffffffffffffffffff16ff5b600082825260208201905092915050565b7f4f6e6c792074686520636f6e7472616374206f776e65722063616e2063616c6c60008201527f20746869732066756e6374696f6e000000000000000000000000000000000000602082015250565b600061016e602e83610101565b915061017982610112565b604082019050919050565b6000602082019050818103600083015261019d81610161565b905091905056fea2646970667358221220bc996e314dbd80247793d222d7bc2f291de59149e9903b2685b71933e6fcc0d764736f6c63430008130033",
  "immutableReferences": {},
  "source": "pragma solidity >=0.7.0 <0.9.0;\n\ncontract owned {\n\n    address owner;\n\n    // Contract constructor: set owner\n    constructor() {\n        owner = msg.sender;\n    }\n    \n    // Access control modifier\n    modifier onlyOwner {\n        require(msg.sender == owner, \n                \"Only the contract owner can call this function\");\n        _;\n    }\n}\n\ncontract mortal is owned{\n    //Contract destructor\n    function destroy() public onlyOwner{\n        selfdestruct(payable(owner));\n    }\n}\n\ncontract Faucet is mortal{\n    event Withdrawal(address indexed to, uint amount);\n    event Deposit(address indexed from, uint amount);\n    // Give out ether to anyone who asks\n    function withdraw(uint withdraw_amount) public{\n        //Limit withdraw amount\n        require(withdraw_amount<=100000000000000000);\n        require(address(this).balance >= withdraw_amount, \n                \"Insufficient balance in faucet for withdrawl request\");\n        //Send the amount to the address that requested it\n        payable(msg.sender).transfer(withdraw_amount);\n        emit Withdrawal(msg.sender, withdraw_amount);\n    }\n    //Accept any incoming amount\n    fallback() external payable{\n        emit Deposit(msg.sender, msg.value);\n    }\n}\n",
  "sourcePath": "/home/skylorun/LearningBasics/truffle/Faucet/contracts/Faucet.sol",
  "compiler": {
    "name": "solc",
    "version": "0.8.19+commit.7dd6d404.Emscripten.clang"
  },
  "schemaVersion": "3.4.12",
  "updatedAt": "2023-02-23T17:35:33.729Z",
  "devdoc": {
    "kind": "dev",
    "methods": {},
    "version": 1
  },
  "userdoc": {
    "kind": "user",
    "methods": {},
    "version": 1
  }
}